{
  "_format": "hh3-artifact-1",
  "contractName": "OrganicTraceability",
  "sourceName": "contracts/OrganicTraceability.sol",
  "abi": [
    {
      "anonymous": false,
      "inputs": [
        {
          "indexed": false,
          "internalType": "uint256",
          "name": "id",
          "type": "uint256"
        },
        {
          "indexed": false,
          "internalType": "string",
          "name": "name",
          "type": "string"
        },
        {
          "indexed": false,
          "internalType": "address",
          "name": "producer",
          "type": "address"
        }
      ],
      "name": "ProductCreated",
      "type": "event"
    },
    {
      "anonymous": false,
      "inputs": [
        {
          "indexed": false,
          "internalType": "uint256",
          "name": "id",
          "type": "uint256"
        },
        {
          "indexed": false,
          "internalType": "enum OrganicTraceability.Status",
          "name": "status",
          "type": "uint8"
        },
        {
          "indexed": false,
          "internalType": "address",
          "name": "updatedBy",
          "type": "address"
        }
      ],
      "name": "StatusUpdated",
      "type": "event"
    },
    {
      "inputs": [
        {
          "internalType": "uint256",
          "name": "_id",
          "type": "uint256"
        }
      ],
      "name": "getProductDetails",
      "outputs": [
        {
          "components": [
            {
              "internalType": "uint256",
              "name": "id",
              "type": "uint256"
            },
            {
              "internalType": "string",
              "name": "name",
              "type": "string"
            },
            {
              "internalType": "address",
              "name": "currentOwner",
              "type": "address"
            },
            {
              "internalType": "enum OrganicTraceability.Status",
              "name": "status",
              "type": "uint8"
            },
            {
              "internalType": "bool",
              "name": "isOrganic",
              "type": "bool"
            },
            {
              "internalType": "uint256",
              "name": "timestamp",
              "type": "uint256"
            },
            {
              "internalType": "string",
              "name": "metadataURI",
              "type": "string"
            }
          ],
          "internalType": "struct OrganicTraceability.Product",
          "name": "",
          "type": "tuple"
        }
      ],
      "stateMutability": "view",
      "type": "function"
    },
    {
      "inputs": [],
      "name": "productCount",
      "outputs": [
        {
          "internalType": "uint256",
          "name": "",
          "type": "uint256"
        }
      ],
      "stateMutability": "view",
      "type": "function"
    },
    {
      "inputs": [
        {
          "internalType": "uint256",
          "name": "",
          "type": "uint256"
        }
      ],
      "name": "products",
      "outputs": [
        {
          "internalType": "uint256",
          "name": "id",
          "type": "uint256"
        },
        {
          "internalType": "string",
          "name": "name",
          "type": "string"
        },
        {
          "internalType": "address",
          "name": "currentOwner",
          "type": "address"
        },
        {
          "internalType": "enum OrganicTraceability.Status",
          "name": "status",
          "type": "uint8"
        },
        {
          "internalType": "bool",
          "name": "isOrganic",
          "type": "bool"
        },
        {
          "internalType": "uint256",
          "name": "timestamp",
          "type": "uint256"
        },
        {
          "internalType": "string",
          "name": "metadataURI",
          "type": "string"
        }
      ],
      "stateMutability": "view",
      "type": "function"
    },
    {
      "inputs": [
        {
          "internalType": "string",
          "name": "_name",
          "type": "string"
        },
        {
          "internalType": "string",
          "name": "_metadataURI",
          "type": "string"
        }
      ],
      "name": "registerProduct",
      "outputs": [],
      "stateMutability": "nonpayable",
      "type": "function"
    },
    {
      "inputs": [
        {
          "internalType": "uint256",
          "name": "_id",
          "type": "uint256"
        },
        {
          "internalType": "enum OrganicTraceability.Status",
          "name": "_newStatus",
          "type": "uint8"
        }
      ],
      "name": "updateStatus",
      "outputs": [],
      "stateMutability": "nonpayable",
      "type": "function"
    }
  ],
  "bytecode": "0x6080604052348015600e575f5ffd5b506112788061001c5f395ff3fe608060405234801561000f575f5ffd5b5060043610610055575f3560e01c80633a1b3d31146100595780636813b53b146100755780637acc0b20146100a55780638fbd0dcf146100db578063e0f6ef87146100f7575b5f5ffd5b610073600480360381019061006e9190610893565b610115565b005b61008f600480360381019061008a91906108d1565b610249565b60405161009c9190610ae7565b60405180910390f35b6100bf60048036038101906100ba91906108d1565b6104a1565b6040516100d29796959493929190610b8b565b60405180910390f35b6100f560048036038101906100f09190610d32565b610623565b005b6100ff6107c4565b60405161010c9190610da8565b60405180910390f35b813373ffffffffffffffffffffffffffffffffffffffff165f5f8381526020019081526020015f206002015f9054906101000a900473ffffffffffffffffffffffffffffffffffffffff1673ffffffffffffffffffffffffffffffffffffffff16146101b6576040517f08c379a00000000000000000000000000000000000000000000000000000000081526004016101ad90610e0b565b60405180910390fd5b815f5f8581526020019081526020015f2060020160146101000a81548160ff021916908360048111156101ec576101eb6109ba565b5b0217905550425f5f8581526020019081526020015f20600301819055507f16ad05ce3d778c4a2ba55f55814ad9f3e606fe0c042972def94655ed8e1c31cc83833360405161023c93929190610e29565b60405180910390a1505050565b6102516107ca565b5f8211801561026257506001548211155b6102a1576040517f08c379a000000000000000000000000000000000000000000000000000000000815260040161029890610ea8565b60405180910390fd5b5f5f8381526020019081526020015f206040518060e00160405290815f82015481526020016001820180546102d590610ef3565b80601f016020809104026020016040519081016040528092919081815260200182805461030190610ef3565b801561034c5780601f106103235761010080835404028352916020019161034c565b820191905f5260205f20905b81548152906001019060200180831161032f57829003601f168201915b50505050508152602001600282015f9054906101000a900473ffffffffffffffffffffffffffffffffffffffff1673ffffffffffffffffffffffffffffffffffffffff1673ffffffffffffffffffffffffffffffffffffffff1681526020016002820160149054906101000a900460ff1660048111156103cf576103ce6109ba565b5b60048111156103e1576103e06109ba565b5b81526020016002820160159054906101000a900460ff161515151581526020016003820154815260200160048201805461041a90610ef3565b80601f016020809104026020016040519081016040528092919081815260200182805461044690610ef3565b80156104915780601f1061046857610100808354040283529160200191610491565b820191905f5260205f20905b81548152906001019060200180831161047457829003601f168201915b5050505050815250509050919050565b5f602052805f5260405f205f91509050805f0154908060010180546104c590610ef3565b80601f01602080910402602001604051908101604052809291908181526020018280546104f190610ef3565b801561053c5780601f106105135761010080835404028352916020019161053c565b820191905f5260205f20905b81548152906001019060200180831161051f57829003601f168201915b505050505090806002015f9054906101000a900473ffffffffffffffffffffffffffffffffffffffff16908060020160149054906101000a900460ff16908060020160159054906101000a900460ff16908060030154908060040180546105a290610ef3565b80601f01602080910402602001604051908101604052809291908181526020018280546105ce90610ef3565b80156106195780601f106105f057610100808354040283529160200191610619565b820191905f5260205f20905b8154815290600101906020018083116105fc57829003601f168201915b5050505050905087565b60015f81548092919061063590610f50565b91905055506040518060e0016040528060015481526020018381526020013373ffffffffffffffffffffffffffffffffffffffff1681526020015f6004811115610682576106816109ba565b5b8152602001600115158152602001428152602001828152505f5f60015481526020019081526020015f205f820151815f015560208201518160010190816106c99190611137565b506040820151816002015f6101000a81548173ffffffffffffffffffffffffffffffffffffffff021916908373ffffffffffffffffffffffffffffffffffffffff16021790555060608201518160020160146101000a81548160ff0219169083600481111561073b5761073a6109ba565b5b021790555060808201518160020160156101000a81548160ff02191690831515021790555060a0820151816003015560c082015181600401908161077f9190611137565b509050507faf6ffb6277511513e7d579327cc1fc57f0266df2fb11a60b13487b8c9cd2c38860015483336040516107b893929190611206565b60405180910390a15050565b60015481565b6040518060e001604052805f8152602001606081526020015f73ffffffffffffffffffffffffffffffffffffffff1681526020015f6004811115610811576108106109ba565b5b81526020015f151581526020015f8152602001606081525090565b5f604051905090565b5f5ffd5b5f5ffd5b5f819050919050565b61084f8161083d565b8114610859575f5ffd5b50565b5f8135905061086a81610846565b92915050565b6005811061087c575f5ffd5b50565b5f8135905061088d81610870565b92915050565b5f5f604083850312156108a9576108a8610835565b5b5f6108b68582860161085c565b92505060206108c78582860161087f565b9150509250929050565b5f602082840312156108e6576108e5610835565b5b5f6108f38482850161085c565b91505092915050565b6109058161083d565b82525050565b5f81519050919050565b5f82825260208201905092915050565b8281835e5f83830152505050565b5f601f19601f8301169050919050565b5f61094d8261090b565b6109578185610915565b9350610967818560208601610925565b61097081610933565b840191505092915050565b5f73ffffffffffffffffffffffffffffffffffffffff82169050919050565b5f6109a48261097b565b9050919050565b6109b48161099a565b82525050565b7f4e487b71000000000000000000000000000000000000000000000000000000005f52602160045260245ffd5b600581106109f8576109f76109ba565b5b50565b5f819050610a08826109e7565b919050565b5f610a17826109fb565b9050919050565b610a2781610a0d565b82525050565b5f8115159050919050565b610a4181610a2d565b82525050565b5f60e083015f830151610a5c5f8601826108fc565b5060208301518482036020860152610a748282610943565b9150506040830151610a8960408601826109ab565b506060830151610a9c6060860182610a1e565b506080830151610aaf6080860182610a38565b5060a0830151610ac260a08601826108fc565b5060c083015184820360c0860152610ada8282610943565b9150508091505092915050565b5f6020820190508181035f830152610aff8184610a47565b905092915050565b610b108161083d565b82525050565b5f82825260208201905092915050565b5f610b308261090b565b610b3a8185610b16565b9350610b4a818560208601610925565b610b5381610933565b840191505092915050565b610b678161099a565b82525050565b610b7681610a0d565b82525050565b610b8581610a2d565b82525050565b5f60e082019050610b9e5f83018a610b07565b8181036020830152610bb08189610b26565b9050610bbf6040830188610b5e565b610bcc6060830187610b6d565b610bd96080830186610b7c565b610be660a0830185610b07565b81810360c0830152610bf88184610b26565b905098975050505050505050565b5f5ffd5b5f5ffd5b7f4e487b71000000000000000000000000000000000000000000000000000000005f52604160045260245ffd5b610c4482610933565b810181811067ffffffffffffffff82111715610c6357610c62610c0e565b5b80604052505050565b5f610c7561082c565b9050610c818282610c3b565b919050565b5f67ffffffffffffffff821115610ca057610c9f610c0e565b5b610ca982610933565b9050602081019050919050565b828183375f83830152505050565b5f610cd6610cd184610c86565b610c6c565b905082815260208101848484011115610cf257610cf1610c0a565b5b610cfd848285610cb6565b509392505050565b5f82601f830112610d1957610d18610c06565b5b8135610d29848260208601610cc4565b91505092915050565b5f5f60408385031215610d4857610d47610835565b5b5f83013567ffffffffffffffff811115610d6557610d64610839565b5b610d7185828601610d05565b925050602083013567ffffffffffffffff811115610d9257610d91610839565b5b610d9e85828601610d05565b9150509250929050565b5f602082019050610dbb5f830184610b07565b92915050565b7f4e6f74207468652063757272656e74206f776e657200000000000000000000005f82015250565b5f610df5601583610b16565b9150610e0082610dc1565b602082019050919050565b5f6020820190508181035f830152610e2281610de9565b9050919050565b5f606082019050610e3c5f830186610b07565b610e496020830185610b6d565b610e566040830184610b5e565b949350505050565b7f50726f6475637420646f6573206e6f74206578697374000000000000000000005f82015250565b5f610e92601683610b16565b9150610e9d82610e5e565b602082019050919050565b5f6020820190508181035f830152610ebf81610e86565b9050919050565b7f4e487b71000000000000000000000000000000000000000000000000000000005f52602260045260245ffd5b5f6002820490506001821680610f0a57607f821691505b602082108103610f1d57610f1c610ec6565b5b50919050565b7f4e487b71000000000000000000000000000000000000000000000000000000005f52601160045260245ffd5b5f610f5a8261083d565b91507fffffffffffffffffffffffffffffffffffffffffffffffffffffffffffffffff8203610f8c57610f8b610f23565b5b600182019050919050565b5f819050815f5260205f209050919050565b5f6020601f8301049050919050565b5f82821b905092915050565b5f60088302610ff37fffffffffffffffffffffffffffffffffffffffffffffffffffffffffffffffff82610fb8565b610ffd8683610fb8565b95508019841693508086168417925050509392505050565b5f819050919050565b5f61103861103361102e8461083d565b611015565b61083d565b9050919050565b5f819050919050565b6110518361101e565b61106561105d8261103f565b848454610fc4565b825550505050565b5f5f905090565b61107c61106d565b611087818484611048565b505050565b5b818110156110aa5761109f5f82611074565b60018101905061108d565b5050565b601f8211156110ef576110c081610f97565b6110c984610fa9565b810160208510156110d8578190505b6110ec6110e485610fa9565b83018261108c565b50505b505050565b5f82821c905092915050565b5f61110f5f19846008026110f4565b1980831691505092915050565b5f6111278383611100565b9150826002028217905092915050565b6111408261090b565b67ffffffffffffffff81111561115957611158610c0e565b5b6111638254610ef3565b61116e8282856110ae565b5f60209050601f83116001811461119f575f841561118d578287015190505b611197858261111c565b8655506111fe565b601f1984166111ad86610f97565b5f5b828110156111d4578489015182556001820191506020850194506020810190506111af565b868310156111f157848901516111ed601f891682611100565b8355505b6001600288020188555050505b505050505050565b5f6060820190506112195f830186610b07565b818103602083015261122b8185610b26565b905061123a6040830184610b5e565b94935050505056fea26469706673582212205519758850a7ca0334f73221339760a5263ac6f5ff5f816825ec432b1cadfdb564736f6c634300081c0033",
  "linkReferences": {},
  "deployedLinkReferences": {},
  "immutableReferences": {},
  "inputSourceName": "project/contracts/OrganicTraceability.sol",
  "buildInfoId": "solc-0_8_28-741c7ab5eb0640ad6c6aa9db487010887f845b7c"
}