{
  "_format": "hh3-artifact-1",
  "contractName": "OrganicTraceability",
  "sourceName": "contracts/OrganicTraceability.sol",
  "abi": [
    {
      "anonymous": false,
      "inputs": [
        {
          "indexed": false,
          "internalType": "uint256",
          "name": "id",
          "type": "uint256"
        },
        {
          "indexed": false,
          "internalType": "string",
          "name": "name",
          "type": "string"
        },
        {
          "indexed": false,
          "internalType": "address",
          "name": "producer",
          "type": "address"
        }
      ],
      "name": "ProductCreated",
      "type": "event"
    },
    {
      "anonymous": false,
      "inputs": [
        {
          "indexed": false,
          "internalType": "uint256",
          "name": "id",
          "type": "uint256"
        },
        {
          "indexed": false,
          "internalType": "enum OrganicTraceability.Status",
          "name": "status",
          "type": "uint8"
        },
        {
          "indexed": false,
          "internalType": "string",
          "name": "location",
          "type": "string"
        },
        {
          "indexed": false,
          "internalType": "address",
          "name": "updatedBy",
          "type": "address"
        }
      ],
      "name": "StatusUpdated",
      "type": "event"
    },
    {
      "inputs": [
        {
          "internalType": "uint256",
          "name": "_id",
          "type": "uint256"
        }
      ],
      "name": "getProductDetails",
      "outputs": [
        {
          "internalType": "string",
          "name": "name",
          "type": "string"
        },
        {
          "internalType": "address",
          "name": "currentOwner",
          "type": "address"
        },
        {
          "internalType": "bool",
          "name": "isOrganic",
          "type": "bool"
        },
        {
          "components": [
            {
              "internalType": "uint256",
              "name": "waterUsage",
              "type": "uint256"
            },
            {
              "internalType": "uint256",
              "name": "carbonFootprint",
              "type": "uint256"
            },
            {
              "internalType": "uint256",
              "name": "soilHealth",
              "type": "uint256"
            }
          ],
          "internalType": "struct OrganicTraceability.Metrics",
          "name": "metrics",
          "type": "tuple"
        },
        {
          "internalType": "string",
          "name": "metadataURI",
          "type": "string"
        }
      ],
      "stateMutability": "view",
      "type": "function"
    },
    {
      "inputs": [
        {
          "internalType": "uint256",
          "name": "_id",
          "type": "uint256"
        }
      ],
      "name": "getProductJourney",
      "outputs": [
        {
          "components": [
            {
              "internalType": "enum OrganicTraceability.Status",
              "name": "status",
              "type": "uint8"
            },
            {
              "internalType": "string",
              "name": "location",
              "type": "string"
            },
            {
              "internalType": "uint256",
              "name": "timestamp",
              "type": "uint256"
            },
            {
              "internalType": "address",
              "name": "processedBy",
              "type": "address"
            }
          ],
          "internalType": "struct OrganicTraceability.Stage[]",
          "name": "",
          "type": "tuple[]"
        }
      ],
      "stateMutability": "view",
      "type": "function"
    },
    {
      "inputs": [],
      "name": "productCount",
      "outputs": [
        {
          "internalType": "uint256",
          "name": "",
          "type": "uint256"
        }
      ],
      "stateMutability": "view",
      "type": "function"
    },
    {
      "inputs": [
        {
          "internalType": "string",
          "name": "_name",
          "type": "string"
        },
        {
          "internalType": "string",
          "name": "_metadataURI",
          "type": "string"
        },
        {
          "internalType": "string",
          "name": "_initialLocation",
          "type": "string"
        },
        {
          "internalType": "uint256",
          "name": "_water",
          "type": "uint256"
        },
        {
          "internalType": "uint256",
          "name": "_carbon",
          "type": "uint256"
        },
        {
          "internalType": "uint256",
          "name": "_soil",
          "type": "uint256"
        }
      ],
      "name": "registerProduct",
      "outputs": [],
      "stateMutability": "nonpayable",
      "type": "function"
    },
    {
      "inputs": [
        {
          "internalType": "uint256",
          "name": "_id",
          "type": "uint256"
        },
        {
          "internalType": "enum OrganicTraceability.Status",
          "name": "_newStatus",
          "type": "uint8"
        },
        {
          "internalType": "string",
          "name": "_location",
          "type": "string"
        }
      ],
      "name": "updateStatus",
      "outputs": [],
      "stateMutability": "nonpayable",
      "type": "function"
    }
  ],
  "bytecode": "0x6080604052348015600e575f5ffd5b506114ea8061001c5f395ff3fe608060405234801561000f575f5ffd5b5060043610610055575f3560e01c80636813b53b14610059578063781f0b721461008d578063c01623a1146100a9578063d8305fd4146100c5578063e0f6ef87146100f5575b5f5ffd5b610073600480360381019061006e91906109a8565b610113565b604051610084959493929190610aeb565b60405180910390f35b6100a760048036038101906100a29190610c99565b610319565b005b6100c360048036038101906100be9190610d05565b610514565b005b6100df60048036038101906100da91906109a8565b610759565b6040516100ec9190610fc7565b60405180910390f35b6100fd610940565b60405161010a9190610ff6565b60405180910390f35b60605f5f61011f610946565b60605f8611801561013257506001548611155b610171576040517f08c379a000000000000000000000000000000000000000000000000000000000815260040161016890611059565b60405180910390fd5b5f5f5f8881526020019081526020015f20905080600101816002015f9054906101000a900473ffffffffffffffffffffffffffffffffffffffff168260020160149054906101000a900460ff1683600401846003018480546101d2906110a4565b80601f01602080910402602001604051908101604052809291908181526020018280546101fe906110a4565b80156102495780601f1061022057610100808354040283529160200191610249565b820191905f5260205f20905b81548152906001019060200180831161022c57829003601f168201915b50505050509450816040518060600160405290815f8201548152602001600182015481526020016002820154815250509150808054610287906110a4565b80601f01602080910402602001604051908101604052809291908181526020018280546102b3906110a4565b80156102fe5780601f106102d5576101008083540402835291602001916102fe565b820191905f5260205f20905b8154815290600101906020018083116102e157829003601f168201915b50505050509050955095509550955095505091939590929450565b823373ffffffffffffffffffffffffffffffffffffffff165f5f8381526020019081526020015f206002015f9054906101000a900473ffffffffffffffffffffffffffffffffffffffff1673ffffffffffffffffffffffffffffffffffffffff16146103ba576040517f08c379a00000000000000000000000000000000000000000000000000000000081526004016103b19061111e565b60405180910390fd5b5f5f8581526020019081526020015f2060070160405180608001604052808560048111156103eb576103ea610e0b565b5b81526020018481526020014281526020013373ffffffffffffffffffffffffffffffffffffffff16815250908060018154018082558091505060019003905f5260205f2090600402015f909190919091505f820151815f015f6101000a81548160ff0219169083600481111561046457610463610e0b565b5b0217905550602082015181600101908161047e91906112dc565b50604082015181600201556060820151816003015f6101000a81548173ffffffffffffffffffffffffffffffffffffffff021916908373ffffffffffffffffffffffffffffffffffffffff16021790555050507fd35271a8825f8de958bbcf4ee452b8bc87633dadfc705cf61cb73c0153c550978484843360405161050694939291906113ba565b60405180910390a150505050565b60015f81548092919061052690611431565b91905055505f5f5f60015481526020019081526020015f209050600154815f01819055508681600101908161055b91906112dc565b5033816002015f6101000a81548173ffffffffffffffffffffffffffffffffffffffff021916908373ffffffffffffffffffffffffffffffffffffffff16021790555060018160020160146101000a81548160ff021916908315150217905550858160030190816105cc91906112dc565b50604051806060016040528085815260200184815260200183815250816004015f820151815f015560208201518160010155604082015181600201559050508060070160405180608001604052805f600481111561062d5761062c610e0b565b5b81526020018781526020014281526020013373ffffffffffffffffffffffffffffffffffffffff16815250908060018154018082558091505060019003905f5260205f2090600402015f909190919091505f820151815f015f6101000a81548160ff021916908360048111156106a6576106a5610e0b565b5b021790555060208201518160010190816106c091906112dc565b50604082015181600201556060820151816003015f6101000a81548173ffffffffffffffffffffffffffffffffffffffff021916908373ffffffffffffffffffffffffffffffffffffffff16021790555050507faf6ffb6277511513e7d579327cc1fc57f0266df2fb11a60b13487b8c9cd2c388600154883360405161074893929190611478565b60405180910390a150505050505050565b60605f8211801561076c57506001548211155b6107ab576040517f08c379a00000000000000000000000000000000000000000000000000000000081526004016107a290611059565b60405180910390fd5b5f5f8381526020019081526020015f20600701805480602002602001604051908101604052809291908181526020015f905b82821015610935578382905f5260205f2090600402016040518060800160405290815f82015f9054906101000a900460ff16600481111561082157610820610e0b565b5b600481111561083357610832610e0b565b5b8152602001600182018054610847906110a4565b80601f0160208091040260200160405190810160405280929190818152602001828054610873906110a4565b80156108be5780601f10610895576101008083540402835291602001916108be565b820191905f5260205f20905b8154815290600101906020018083116108a157829003601f168201915b5050505050815260200160028201548152602001600382015f9054906101000a900473ffffffffffffffffffffffffffffffffffffffff1673ffffffffffffffffffffffffffffffffffffffff1673ffffffffffffffffffffffffffffffffffffffff1681525050815260200190600101906107dd565b505050509050919050565b60015481565b60405180606001604052805f81526020015f81526020015f81525090565b5f604051905090565b5f5ffd5b5f5ffd5b5f819050919050565b61098781610975565b8114610991575f5ffd5b50565b5f813590506109a28161097e565b92915050565b5f602082840312156109bd576109bc61096d565b5b5f6109ca84828501610994565b91505092915050565b5f81519050919050565b5f82825260208201905092915050565b8281835e5f83830152505050565b5f601f19601f8301169050919050565b5f610a15826109d3565b610a1f81856109dd565b9350610a2f8185602086016109ed565b610a38816109fb565b840191505092915050565b5f73ffffffffffffffffffffffffffffffffffffffff82169050919050565b5f610a6c82610a43565b9050919050565b610a7c81610a62565b82525050565b5f8115159050919050565b610a9681610a82565b82525050565b610aa581610975565b82525050565b606082015f820151610abf5f850182610a9c565b506020820151610ad26020850182610a9c565b506040820151610ae56040850182610a9c565b50505050565b5f60e0820190508181035f830152610b038188610a0b565b9050610b126020830187610a73565b610b1f6040830186610a8d565b610b2c6060830185610aab565b81810360c0830152610b3e8184610a0b565b90509695505050505050565b60058110610b56575f5ffd5b50565b5f81359050610b6781610b4a565b92915050565b5f5ffd5b5f5ffd5b7f4e487b71000000000000000000000000000000000000000000000000000000005f52604160045260245ffd5b610bab826109fb565b810181811067ffffffffffffffff82111715610bca57610bc9610b75565b5b80604052505050565b5f610bdc610964565b9050610be88282610ba2565b919050565b5f67ffffffffffffffff821115610c0757610c06610b75565b5b610c10826109fb565b9050602081019050919050565b828183375f83830152505050565b5f610c3d610c3884610bed565b610bd3565b905082815260208101848484011115610c5957610c58610b71565b5b610c64848285610c1d565b509392505050565b5f82601f830112610c8057610c7f610b6d565b5b8135610c90848260208601610c2b565b91505092915050565b5f5f5f60608486031215610cb057610caf61096d565b5b5f610cbd86828701610994565b9350506020610cce86828701610b59565b925050604084013567ffffffffffffffff811115610cef57610cee610971565b5b610cfb86828701610c6c565b9150509250925092565b5f5f5f5f5f5f60c08789031215610d1f57610d1e61096d565b5b5f87013567ffffffffffffffff811115610d3c57610d3b610971565b5b610d4889828a01610c6c565b965050602087013567ffffffffffffffff811115610d6957610d68610971565b5b610d7589828a01610c6c565b955050604087013567ffffffffffffffff811115610d9657610d95610971565b5b610da289828a01610c6c565b9450506060610db389828a01610994565b9350506080610dc489828a01610994565b92505060a0610dd589828a01610994565b9150509295509295509295565b5f81519050919050565b5f82825260208201905092915050565b5f819050602082019050919050565b7f4e487b71000000000000000000000000000000000000000000000000000000005f52602160045260245ffd5b60058110610e4957610e48610e0b565b5b50565b5f819050610e5982610e38565b919050565b5f610e6882610e4c565b9050919050565b610e7881610e5e565b82525050565b5f82825260208201905092915050565b5f610e98826109d3565b610ea28185610e7e565b9350610eb28185602086016109ed565b610ebb816109fb565b840191505092915050565b610ecf81610a62565b82525050565b5f608083015f830151610eea5f860182610e6f565b5060208301518482036020860152610f028282610e8e565b9150506040830151610f176040860182610a9c565b506060830151610f2a6060860182610ec6565b508091505092915050565b5f610f408383610ed5565b905092915050565b5f602082019050919050565b5f610f5e82610de2565b610f688185610dec565b935083602082028501610f7a85610dfc565b805f5b85811015610fb55784840389528151610f968582610f35565b9450610fa183610f48565b925060208a01995050600181019050610f7d565b50829750879550505050505092915050565b5f6020820190508181035f830152610fdf8184610f54565b905092915050565b610ff081610975565b82525050565b5f6020820190506110095f830184610fe7565b92915050565b7f50726f6475637420646f6573206e6f74206578697374000000000000000000005f82015250565b5f6110436016836109dd565b915061104e8261100f565b602082019050919050565b5f6020820190508181035f83015261107081611037565b9050919050565b7f4e487b71000000000000000000000000000000000000000000000000000000005f52602260045260245ffd5b5f60028204905060018216806110bb57607f821691505b6020821081036110ce576110cd611077565b5b50919050565b7f4e6f74207468652063757272656e74206f776e657200000000000000000000005f82015250565b5f6111086015836109dd565b9150611113826110d4565b602082019050919050565b5f6020820190508181035f830152611135816110fc565b9050919050565b5f819050815f5260205f209050919050565b5f6020601f8301049050919050565b5f82821b905092915050565b5f600883026111987fffffffffffffffffffffffffffffffffffffffffffffffffffffffffffffffff8261115d565b6111a2868361115d565b95508019841693508086168417925050509392505050565b5f819050919050565b5f6111dd6111d86111d384610975565b6111ba565b610975565b9050919050565b5f819050919050565b6111f6836111c3565b61120a611202826111e4565b848454611169565b825550505050565b5f5f905090565b611221611212565b61122c8184846111ed565b505050565b5b8181101561124f576112445f82611219565b600181019050611232565b5050565b601f821115611294576112658161113c565b61126e8461114e565b8101602085101561127d578190505b6112916112898561114e565b830182611231565b50505b505050565b5f82821c905092915050565b5f6112b45f1984600802611299565b1980831691505092915050565b5f6112cc83836112a5565b9150826002028217905092915050565b6112e5826109d3565b67ffffffffffffffff8111156112fe576112fd610b75565b5b61130882546110a4565b611313828285611253565b5f60209050601f831160018114611344575f8415611332578287015190505b61133c85826112c1565b8655506113a3565b601f1984166113528661113c565b5f5b8281101561137957848901518255600182019150602085019450602081019050611354565b868310156113965784890151611392601f8916826112a5565b8355505b6001600288020188555050505b505050505050565b6113b481610e5e565b82525050565b5f6080820190506113cd5f830187610fe7565b6113da60208301866113ab565b81810360408301526113ec8185610a0b565b90506113fb6060830184610a73565b95945050505050565b7f4e487b71000000000000000000000000000000000000000000000000000000005f52601160045260245ffd5b5f61143b82610975565b91507fffffffffffffffffffffffffffffffffffffffffffffffffffffffffffffffff820361146d5761146c611404565b5b600182019050919050565b5f60608201905061148b5f830186610fe7565b818103602083015261149d8185610a0b565b90506114ac6040830184610a73565b94935050505056fea2646970667358221220ff9bb4ceb8e9dcd6ecafd6fde8b76afe29a3aac5f022717a9421bbe70398bd9864736f6c634300081c0033",
  "linkReferences": {},
  "deployedLinkReferences": {},
  "immutableReferences": {},
  "inputSourceName": "project/contracts/OrganicTraceability.sol",
  "buildInfoId": "solc-0_8_28-620af701be3cb3feb94491492ad28a33ce08b5f4"
}